:0200000480007A
:100000006F00C004732F2034930F8000630AFF0336
:10001000930F90006306FF03930FB0006302FF038A
:10002000170F0080130F0FFE63040F0067000F000F
:10003000732F203463540F006F00400093E19153FD
:10004000171F000023203FFC6FF09FFF732540F136
:1000500063100500970200009382020173905230F2
:1000600073500018970200009382C20173905230BF
:100070009302F0FF7390023B9302F0017390023AF7
:1000800097020000938282017390523073502030A7
:1000900073503030735040309301000097020000DD
:1000A000938282F673905230130510001315F501F8
:1000B000634805000F00F00F93011000730000006B
:1000C00097020080938202F4638E020073905210B4
:1000D000B7B20000938292107390223073232030C5
:1000E000E39E62F473500030970200009382420155
:1000F00073901234732540F173002030B70001FF74
:10010000938000F013FFF0F0B70E01FF938E0EF016
:10011000930120006314DF1BB710F00F938000FFE2
:1001200013FF000F930E000F930130006318DF19C7
:10013000B700FF009380F00F13FFF070930EF000F4
:1001400093014000631CDF17B7F00FF09380F000BD
:1001500013FF000F930E0000930150006310DF1790
:10016000B70001FF938000F093F0000F930E0000A2
:10017000930160006394D01513020000B710F00FD4
:10018000938000FF13FFF07013030F00130212009F
:1001900093022000E31452FE930E0070930170004E
:1001A000631ED31113020000B700FF009380F00F0D
:1001B00013FF000F1300000013030F0013021200BF
:1001C00093022000E31252FE930E000F9301800071
:1001D0006316D30F13020000B7F00FF09380F00006
:1001E00013FFF0F0130000001300000013030F00D2
:1001F0001302120093022000E31052FEB7FE0FF02C
:10020000938EFE0093019000631AD30B130200003B
:10021000B710F00F938000FF13FFF070130212006D
:1002200093022000E31652FE930E00709301A0008B
:100230006316DF0913020000B700FF009380F00F80
:100240001300000013FF000F13021200930220009E
:10025000E31452FE930E000F9301B0006310DF070A
:1002600013020000B7F00FF09380F00013000000BD
:100270001300000013FFF07013021200930220001D
:10028000E31252FE930EF0009301C0006318DF03E7
:100290009370000F930E00009301D0006390D00381
:1002A000B700FF009380F00F13F0F070930E000082
:1002B0009301E0006314D001631C30000F00F00FC5
:1002C000638001009391110093E11100730000001D
:1002D0000F00F00F9301100073000000731000C0B6
:1002E000000000000000000000000000000000000E
:1002F00000000000000000000000000000000000FE
:0403000000000000F9
:1010000000000000000000000000000000000000E0
:1010100000000000000000000000000000000000D0
:1010200000000000000000000000000000000000C0
:1010300000000000000000000000000000000000B0
:081040000000000000000000A8
:040000058000000077
:00000001FF
