:0200000480007A
:100000006F00C004732F2034930F8000630AFF0336
:10001000930F90006306FF03930FB0006302FF038A
:10002000170F0080130F0FFE63040F0067000F000F
:10003000732F203463540F006F00400093E19153FD
:10004000171F000023203FFC6FF09FFF732540F136
:1000500063100500970200009382020173905230F2
:1000600073500018970200009382C20173905230BF
:100070009302F0FF7390023B9302F0017390023AF7
:1000800097020000938282017390523073502030A7
:1000900073503030735040309301000097020000DD
:1000A000938282F673905230130510001315F501F8
:1000B000634805000F00F00F93011000730000006B
:1000C00097020080938202F4638E020073905210B4
:1000D000B7B20000938292107390223073232030C5
:1000E000E39E62F473500030970200009382420155
:1000F00073901234732540F1730020309720000074
:10010000938040F01301A0FA23802000038F0000A9
:10011000930EA0FA93012000631CDF3D972000009E
:10012000938040EE13010000A3802000038F100095
:10013000930E000093013000631CDF3B972000000A
:10014000938040EC37F1FFFF130101FA2381200077
:10015000039F2000B7FEFFFF938E0EFA930140002D
:100160006318DF39972000009380C0E91301A000D5
:10017000A3812000038F3000930EA0009301500054
:100180006318DF3797200000938030E81301A0FA4E
:10019000A38E20FE038FD0FF930EA0FA9301600080
:1001A0006318DF3597200000938030E613010000CC
:1001B000238F20FE038FE0FF930E00009301700059
:1001C0006318DF3397200000938030E4130100FAB6
:1001D000A38F20FE038FF0FF930E00FA930180009F
:1001E0006318DF3197200000938030E21301A000F4
:1001F00023802000038F0000930EA0009301900045
:100200006318DF2F97200000938040E037513412AD
:1002100013018167138200FE230022028382000003
:10022000930E80079301A0006394D22D97200000C5
:100230009380C0DD37310000130181099380A0FF56
:10024000A383200017220000130252DC8302020065
:10025000930E80F99301B000639CD2299301C000F2
:10026000130200009300D0FD17210000130181D973
:1002700023001100030F0100930ED0FD631ADF2746
:100280001302120093022000E31E52FC9301D000DF
:10029000130200009300D0FC17210000130181D647
:1002A00013000000A3001100030F1100930ED0FCF7
:1002B0006310DF251302120093022000E31C52FC9E
:1002C0009301E000130200009300C0FC172100001E
:1002D000130141D31300000013000000230111009B
:1002E000030F2100930EC0FC6314DF2113021200E0
:1002F00093022000E31A52FC9301F0001302000065
:100300009300C0FB1300000017210000130181CFF0
:10031000A3011100030F3100930EC0FB631ADF1D10
:100320001302120093022000E31C52FC930100010F
:10033000130200009300B0FB13000000172100001F
:10034000130141CC1300000023021100030F4100F0
:10035000930EB0FB631EDF191302120093022000FC
:10036000E31A52FC93011001130200009300B0FA4B
:10037000130000001300000017210000130181C8C2
:10038000A3021100030F5100930EB0FA6312DF179E
:100390001302120093022000E31A52FC9301200181
:1003A00013020000172100001301C1C593003003A0
:1003B00023001100030F0100930E3003631ADF13B3
:1003C0001302120093022000E31E52FC930130013D
:1003D00013020000172100001301C1C29300300274
:1003E00013000000A3001100030F1100930E300250
:1003F0006310DF111302120093022000E31C52FC71
:10040000930140011302000017210000130181BF76
:1004100093002002130000001300000023011100CC
:10042000030F2100930E20026314DF0D130212004C
:1004300093022000E31A52FC9301500113020000C2
:1004400017210000130101BC1300000093002001DC
:10045000A3011100030F3100930E2001631ADF097D
:100460001302120093022000E31C52FC930160016E
:1004700013020000172100001301C1B8130000008F
:10048000930010011300000023021100030F41002C
:10049000930E1001631EDF05130212009302200069
:1004A000E31A52FC930170011302000017210000AF
:1004B000130141B513000000130000009300100069
:1004C000A3021100030F5100930E10006312DF030B
:1004D0001302120093022000E31A52FC1305F00EDF
:1004E00097250000938505B2A381A500631C300009
:1004F0000F00F00F638001009391110093E1110050
:10050000730000000F00F00F930110007300000053
:10051000731000C000000000000000000000000098
:1005200000000000000000000000000000000000CB
:1005300000000000000000000000000000000000BB
:0405400000000000B7
:1010000000000000000000000000000000000000E0
:1010100000000000000000000000000000000000D0
:1010200000000000000000000000000000000000C0
:1010300000000000000000000000000000000000B0
:081040000000000000000000A8
:10200000EFEFEFEFEFEFEFEFEFEF0000000000007A
:040000058000000077
:00000001FF
