:0200000480007A
:100000006F00C004732F2034930F8000630AFF0336
:10001000930F90006306FF03930FB0006302FF038A
:10002000170F0080130F0FFE63040F0067000F000F
:10003000732F203463540F006F00400093E19153FD
:10004000171F000023203FFC6FF09FFF732540F136
:1000500063100500970200009382020173905230F2
:1000600073500018970200009382C20173905230BF
:100070009302F0FF7390023B9302F0017390023AF7
:1000800097020000938282017390523073502030A7
:1000900073503030735040309301000097020000DD
:1000A000938282F673905230130510001315F501F8
:1000B000634805000F00F00F93011000730000006B
:1000C00097020080938202F4638E020073905210B4
:1000D000B7B20000938292107390223073232030C5
:1000E000E39E62F473500030970200009382420155
:1000F00073901234732540F1730020309300000098
:1001000013010000339F2002930E00009301200092
:10011000631ADF4B9300100013011000339F20027D
:10012000930E000093013000631EDF4993003000FE
:1001300013017000339F2002930E000093014000D2
:100140006312DF49930000003781FFFF339F2002D5
:10015000930E0000930150006316DF47B700008044
:1001600013010000339F2002930E000093016000F2
:10017000631ADF45B700008013010000339F20029F
:10018000930E000093017000631EDF43B7B0AAAA6C
:100190009380B0AA370103001301D1E7339F2002F7
:1001A000B70EFFFF938E1E089301E001631CDF4131
:1001B000B70003009380D0E737B1AAAA1301B1AA10
:1001C000339F2002B70EFFFF938E1E089301F001AC
:1001D000631ADF3FB70000FF370100FF339F2002A3
:1001E000B70E010093010002631EDF3D9300F0FF94
:1001F0001301F0FF339F2002930E000093011002C1
:100200006312DF3D9300F0FF13011000339F2002C3
:10021000930EF0FF930120026316DF3B9300100062
:100220001301F0FF339F2002930EF0FF9301300281
:10023000631ADF39B700D0003701B000B390200255
:10024000B79E0000938E0EF093018000639CD03720
:10025000B700E0003701B00033912002B7AE0000D4
:10026000938E0EA093019000631ED135B700D0008D
:10027000B3901002B7BE0000938E0E909301A000C1
:100280006392D03513020000B700D0003701B000F0
:10029000339F200213030F00130212009302200069
:1002A000E31452FEB79E0000938E0EF09301B0004F
:1002B000631AD33113020000B700E0003701B00029
:1002C000339F20021300000013030F0013021200DB
:1002D00093022000E31252FEB7AE0000938E0EA0F0
:1002E0009301C0006310D32F13020000B700F00089
:1002F0003701B000339F20021300000013000000FC
:1003000013030F001302120093022000E31052FEA9
:10031000B7AE0000938E0E509301D0006314D32B20
:1003200013020000B700D0003701B000339F200255
:100330001302120093022000E31652FEB79E000043
:10034000938E0EF09301E000631EDF27130200007E
:10035000B700E0003701B00013000000339F200217
:100360001302120093022000E31452FEB7AE000005
:10037000938E0EA09301F0006316DF251302000098
:10038000B700F0003701B0001300000013000000B8
:10039000339F20021302120093022000E31252FE48
:1003A000B7AE0000938E0E5093010001631CDF2155
:1003B00013020000B700D000130000003701B000A6
:1003C000339F20021302120093022000E31452FE16
:1003D000B79E0000938E0EF0930110016314DF1F8F
:1003E00013020000B700E000130000003701B00066
:1003F00013000000339F200213021200930220001A
:10040000E31252FEB7AE0000938E0EA093012001BE
:10041000631ADF1B13020000B700F0001300000096
:10042000130000003701B000339F200213021200B6
:1004300093022000E31252FEB7AE0000938E0E50DE
:10044000930130016310DF19130200003701B0007F
:10045000B700D000339F2002130212009302200045
:10046000E31652FEB79E0000938E0EF093014001FA
:10047000631ADF15130200003701B000B700E00077
:1004800013000000339F2002130212009302200089
:10049000E31452FEB7AE0000938E0EA093015001FC
:1004A0006312DF13130200003701B000B700F00041
:1004B0001300000013000000339F200213021200FB
:1004C00093022000E31252FEB7AE0000938E0E504E
:1004D000930160016318DF0F130200003701B000C1
:1004E00013000000B700D000339F20021302120057
:1004F00093022000E31452FEB79E0000938E0EF08C
:10050000930170016310DF0D130200003701B0008A
:1005100013000000B700E00013000000339F20022A
:100520001302120093022000E31252FEB7AE000045
:10053000938E0EA0930180016316DF091302000061
:100540003701B0001300000013000000B700F000F6
:10055000339F20021302120093022000E31252FE86
:10056000B7AE0000938E0E5093019001631CDF051F
:10057000B700007C33111002930E00009301A0011C
:100580006312D105B700008033910002930E000082
:100590009301B0016318D103B3100002930E000061
:1005A0009301C0016390D003B7001002370120020D
:1005B00033902002930E00009301D0016314D00108
:1005C000631C30000F00F00F638001009391110055
:1005D00093E11100730000000F00F00F9301100071
:1005E00073000000731000C0000000000000000055
:1005F00000000000000000000000000000000000FB
:0406000000000000F6
:1010000000000000000000000000000000000000E0
:1010100000000000000000000000000000000000D0
:1010200000000000000000000000000000000000C0
:1010300000000000000000000000000000000000B0
:081040000000000000000000A8
:040000058000000077
:00000001FF
