:0200000480007A
:100000006F00C004732F2034930F8000630AFF0336
:10001000930F90006306FF03930FB0006302FF038A
:10002000170F0000130F8F2463040F0067000F00E9
:10003000732F203463540F006F00400093E19153FD
:10004000171F000023203FFC6FF09FFF732540F136
:1000500063100500970200009382020173905230F2
:1000600073500018970200009382C20173905230BF
:100070009302F0FF7390023B9302F0017390023AF7
:1000800097020000938282017390523073502030A7
:1000900073503030735040309301000097020000DD
:1000A000938282F673905230130510001315F501F8
:1000B000634805000F00F00F93011000730000006B
:1000C00097020080938202F4638E020073905210B4
:1000D000B7B20000938292107390223073232030C5
:1000E000E39E62F47350003037250000130505804D
:1000F00073200530970200009382420173901234FE
:10010000732540F17300203073D00134732500341F
:10011000930E3000930120006318D513F3F50034DB
:10012000930E3000930130006390D5137366023450
:10013000930E2000930140006318D611F35601344A
:10014000930E6000930150006390D6113725AD0BDC
:100150001305A5DEF3150534930E2000930160000E
:100160006394D50F372500001305A5DE73350534DC
:10017000B72EAD0B938EAEDE930170006316D50DD6
:1001800037C500001305F5EE73250534B70EAD0B2A
:1001900093018000631AD50B73250034B7CEAD0BE5
:1001A000938EFEEE930190006310D50B73251030F3
:1001B0001375050263080502B765000073A00530DA
:1001C000530000F073B0053097250000938585E358
:1001D00027A0050003A50500930E10009301A000C1
:1001E0006314D50773251030135545011375150099
:1001F00063040504B72200009382028073B00230CA
:100200009702000093820201739012347300203031
:100210001305F00F731500C0930EF00F9301B0009B
:100220006314D5031305F00F73250030930EF00F00
:100230009301C000631AD5010F00F00F9301100065
:1002400073000000631C30000F00F00F638001009A
:100250009391110093E11100730000000F00F00F63
:1002600093011000730000009302900063E65100B8
:100270009302B00063FE3200F322203413038000A7
:10028000E39462FC0F00F00F930110007300000074
:10029000F322203413032000E39862FAF32210348F
:1002A000938242007390123473002030731000C0A8
:1002B000000000000000000000000000000000003E
:0402C000000000003A
:1010000000000000000000000000000000000000E0
:1010100000000000000000000000000000000000D0
:1010200000000000000000000000000000000000C0
:1010300000000000000000000000000000000000B0
:081040000000000000000000A8
:1020000001000000000000000000000000000000CF
:040000058000000077
:00000001FF
