:0200000480007A
:100000006F00C004732F2034930F8000630AFF0336
:10001000930F90006306FF03930FB0006302FF038A
:10002000170F0000130FCF1A63040F0067000F00B3
:10003000732F203463540F006F00400093E19153FD
:10004000171F000023203FFC6FF09FFF732540F136
:1000500063100500970200009382020173905230F2
:1000600073500018970200009382C20173905230BF
:100070009302F0FF7390023B9302F0017390023AF7
:1000800097020000938282017390523073502030A7
:1000900073503030735040309301000097020000DD
:1000A000938282F673905230130510001315F501F8
:1000B000634805000F00F00F93011000730000006B
:1000C00097020080938202F4638E020073905210B4
:1000D000B7B20000938292107390223073232030C5
:1000E000E39E62F47350003037250000130505804D
:1000F00073200530970200009382420173901234FE
:10010000732540F173002030930120001303000099
:10011000970200009382C2006783220011A019A0F9
:100120006F00C00893013000970200009382C20064
:10013000678312006F0080006F004007930140004A
:1001400013030000970200009382C200678332000D
:1001500011A019A06F008005930150001303000047
:10016000970200009382C2006F03600011A019A0E3
:100170006F00C003930160001303000097020000AA
:100180009382C2006303000011A019A06F00000257
:1001900093017000631500006F00C00009A009A062
:1001A0006F00C0006F00C001631C30000F00F00F33
:1001B000638001009391110093E11100730000002E
:1001C0000F00F00F930110007300000013052000D2
:1001D0006380A10213054000638CA1001305500049
:1001E0006388A100130560006384A1006FF01FFC09
:1001F000E31E03FA9305000073252034E318B5FAD3
:10020000F325103493854500E392B2FA7325303418
:10021000630605001305E5FFE31A55F89385C5004D
:100220007390153473002030731000C0000000007C
:1002300000000000000000000000000000000000BE
:0402400000000000BA
:1010000000000000000000000000000000000000E0
:1010100000000000000000000000000000000000D0
:1010200000000000000000000000000000000000C0
:1010300000000000000000000000000000000000B0
:081040000000000000000000A8
:040000058000000077
:00000001FF
