:0200000480007A
:100000006F00C004732F2034930F8000630AFF0336
:10001000930F90006306FF03930FB0006302FF038A
:10002000170F0080130F0FFE63040F0067000F000F
:10003000732F203463540F006F00400093E19153FD
:10004000171F000023203FFC6FF09FFF732540F136
:1000500063100500970200009382020173905230F2
:1000600073500018970200009382C20173905230BF
:100070009302F0FF7390023B9302F0017390023AF7
:1000800097020000938282017390523073502030A7
:1000900073503030735040309301000097020000DD
:1000A000938282F673905230130510001315F501F8
:1000B000634805000F00F00F93011000730000006B
:1000C00097020080938202F4638E020073905210B4
:1000D000B7B20000938292107390223073232030C5
:1000E000E39E62F473500030970200009382420155
:1000F00073901234732540F1730020309300000098
:1001000013BF0000930E0000930120006312DF274D
:100110009300100013BF1000930E000093013000F5
:100120006318DF259300300013BF7000930E10009A
:1001300093014000631EDF239300700013BF300063
:10014000930E0000930150006314DF23930000001E
:1001500013BF0080930E100093016000631ADF212B
:10016000B700008013BF0000930E000093017000E1
:100170006310DF21B700008013BF0080930E1000D2
:10018000930180006316DF1F9300000013BFF07F10
:10019000930E100093019000631CDF1DB7000080D8
:1001A0009380F0FF13BF0000930E00009301A000A6
:1001B0006310DF1DB70000809380F0FF13BFF07F56
:1001C000930E00009301B0006314DF1BB7000080A2
:1001D00013BFF07F930E00009301C000631ADF1974
:1001E000B70000809380F0FF13BF0080930E1000D3
:1001F0009301D000631EDF179300000013BFF0FFD0
:10020000930E10009301E0006314DF179300F0FFDA
:1002100013BF1000930E00009301F000631ADF1566
:100220009300F0FF13BFF0FF930E00009301000155
:100230006310DF159300B00093B0D000930E100050
:10024000930110016396D013130200009300F00095
:1002500013BFA00013030F0013021200930220002B
:10026000E31652FE930E0000930120016312D31196
:10027000130200009300A00013BF00011300000050
:1002800013030F001302120093022000E31452FE26
:10029000930E100093013001631CD30D1302000074
:1002A0009300000113BF9000130000001300000032
:1002B00013030F001302120093022000E31252FEF8
:1002C000930E0000930140016314D30B130200004E
:1002D0009300B00013BFF00013021200930220003D
:1002E000E31852FE930E1000930150016312DF09D0
:1002F00013020000930010011300000013BF8000E0
:100300001302120093022000E31652FE930E000027
:1003100093016001631EDF05130200009300C0001B
:10032000130000001300000013BFE00013021200CE
:1003300093022000E31452FE930E1000930170010B
:100340006318DF039330F0FF930E100093018001D8
:100350006390D003B700FF009380F00F13B0F0FF5D
:10036000930E0000930190016314D001631C3000D0
:100370000F00F00F638001009391110093E11100D1
:10038000730000000F00F00F9301100073000000D5
:10039000731000C00000000000000000000000001A
:1003A000000000000000000000000000000000004D
:1003B000000000000000000000000000000000003D
:0403C0000000000039
:1010000000000000000000000000000000000000E0
:1010100000000000000000000000000000000000D0
:1010200000000000000000000000000000000000C0
:1010300000000000000000000000000000000000B0
:081040000000000000000000A8
:040000058000000077
:00000001FF
