:0200000480007A
:100000006F00C004732F2034930F8000630AFF0336
:10001000930F90006306FF03930FB0006302FF038A
:10002000170F0080130F0FFE63040F0067000F000F
:10003000732F203463540F006F00400093E19153FD
:10004000171F000023203FFC6FF09FFF732540F136
:1000500063100500970200009382020173905230F2
:1000600073500018970200009382C20173905230BF
:100070009302F0FF7390023B9302F0017390023AF7
:1000800097020000938282017390523073502030A7
:1000900073503030735040309301000097020000DD
:1000A000938282F673905230130510001315F501F8
:1000B000634805000F00F00F93011000730000006B
:1000C00097020080938202F4638E020073905210B4
:1000D000B7B20000938292107390223073232030C5
:1000E000E39E62F473500030970200009382420155
:1000F00073901234732540F173002030B710FF0065
:10010000938000F013CFF0F0B7FE00FF938EFE0057
:10011000930120006316DF1DB710F00F938000FFDE
:1001200013CF000FB71EF00F938E0EF09301300027
:100130006318DF1BB710FF009380F08F13CFF070B0
:10014000B71EFF00938E0EFF93014000631ADF1964
:10015000B7F00FF09380F00013CF000FB7FE0FF051
:10016000938EFE0F93015000631CDF17B7F000FF62
:100170009380007093C0F070B7FE00FF938EFE0076
:1001800093016000639ED01513020000B710F00FBA
:10019000938000FF13CF000F13030F001302120010
:1001A00093022000E31452FEB71EF00F938E0EF060
:1001B000930170006316D31313020000B710FF0001
:1001C0009380F08F13CFF0701300000013030F0023
:1001D0001302120093022000E31252FEB71EFF002A
:1001E000938E0EFF93018000631CD30F1302000057
:1001F000B7F00FF09380F00013CF000F1300000052
:100200001300000013030F001302120093022000DA
:10021000E31052FEB7FE0FF0938EFE0F9301900095
:100220006310D30D13020000B710F00F938000FF8E
:1002300013CF000F1302120093022000E31652FEA8
:10024000B71EF00F938E0EF09301A000631ADF0922
:1002500013020000B710FF009380F0FF13000000AE
:1002600013CFF0001302120093022000E31452FE99
:10027000B71EFF00938E0EFF9301B0006312DF07DD
:1002800013020000B7F00FF09380F000130000009D
:100290001300000013CF000F13021200930220007E
:1002A000E31252FEB7FE0FF0938EFE0F9301C000D3
:1002B0006318DF039340000F930E000F9301D000EB
:1002C0006390D003B700FF009380F00F13C0F0706D
:1002D000930E00009301E0006314D001631C300012
:1002E0000F00F00F638001009391110093E1110062
:1002F000730000000F00F00F930110007300000066
:04030000731000C0B6
:1010000000000000000000000000000000000000E0
:1010100000000000000000000000000000000000D0
:1010200000000000000000000000000000000000C0
:1010300000000000000000000000000000000000B0
:081040000000000000000000A8
:040000058000000077
:00000001FF
