:0200000480007A
:100000006F00C004732F2034930F8000630AFF0336
:10001000930F90006306FF03930FB0006302FF038A
:10002000170F0080130F0FFE63040F0067000F000F
:10003000732F203463540F006F00400093E19153FD
:10004000171F000023203FFC6FF09FFF732540F136
:1000500063100500970200009382020173905230F2
:1000600073500018970200009382C20173905230BF
:100070009302F0FF7390023B9302F0017390023AF7
:1000800097020000938282017390523073502030A7
:1000900073503030735040309301000097020000DD
:1000A000938282F673905230130510001315F501F8
:1000B000634805000F00F00F93011000730000006B
:1000C00097020080938202F4638E020073905210B4
:1000D000B7B20000938292107390223073232030C5
:1000E000E39E62F473500030970200009382420155
:1000F00073901234732540F173002030B70001FF74
:10010000938000F037110F0F1301F1F033FF20003F
:10011000B71E000F938E0EF093012000631CDF4981
:10012000B710F00F938000FF37F1F0F01301010FCB
:1001300033FF2000B70EF000938E0E0F93013000B6
:10014000631ADF47B700FF009380F00F37110F0FDE
:100150001301F1F033FF2000B70E0F00938EFE0065
:10016000930140006318DF45B7F00FF09380F00073
:1001700037F1F0F01301010F33FF2000B7FE00F05C
:10018000930150006318DF43B70001FF938000F034
:1001900037110F0F1301F1F0B3F02000B71E000F5D
:1001A000938E0EF0930160006396D041B710F00F6C
:1001B000938000FF37F1F0F01301010F33F12000BD
:1001C000B70EF000938E0E0F930170006314D13FB1
:1001D000B70001FF938000F0B3F01000B70E01FFED
:1001E000938E0EF0930180006396D03D13020000C1
:1001F000B70001FF938000F037110F0F1301F1F0EA
:1002000033FF200013030F0013021200930220009B
:10021000E31052FEB71E000F938E0EF09301900074
:10022000631AD33913020000B710F00F938000FF58
:1002300037F1F0F01301010F33FF2000130000002D
:1002400013030F001302120093022000E31E52FC5E
:10025000B70EF000938E0E0F9301A000631CD335F0
:1002600013020000B700FF009380F00F37110F0F4B
:100270001301F1F033FF2000130000001300000011
:1002800013030F001302120093022000E31C52FC20
:10029000B70E0F00938EFE009301B000631CD331A4
:1002A00013020000B70001FF938000F037110F0F19
:1002B0001301F1F033FF200013021200930220001B
:1002C000E31252FEB71E000F938E0EF09301C00092
:1002D0006312DF2F13020000B710F00F938000FFAE
:1002E00037F1F0F01301010F1300000033FF20007D
:1002F0001302120093022000E31052FEB70EF0002A
:10030000938E0E0F9301D0006316DF2B13020000B3
:10031000B700FF009380F00F37110F0F1301F1F0BA
:10032000130000001300000033FF2000130212002E
:1003300093022000E31E52FCB70E0F00938EFE00C6
:100340009301E0006318DF2713020000B70001FFEC
:10035000938000F01300000037110F0F1301F1F02C
:1003600033FF20001302120093022000E31052FE1C
:10037000B71E000F938E0EF09301F000631CDF2375
:1003800013020000B710F00F938000FF130000006D
:1003900037F1F0F01301010F1300000033FF2000CC
:1003A0001302120093022000E31E52FCB70EF0006D
:1003B000938E0E0F93010001631EDF1F13020000D6
:1003C000B700FF009380F00F13000000130000003F
:1003D00037110F0F1301F1F033FF20001302120049
:1003E00093022000E31E52FCB70E0F00938EFE0016
:1003F000930110016310DF1D1302000037110F0F6E
:100400001301F1F0B70001FF938000F033FF2000EB
:100410001302120093022000E31252FEB71E000FD7
:10042000938E0EF0930120016316DF191302000072
:1004300037F1F0F01301010FB710F00F938000FFB8
:100440001300000033FF200013021200930220006B
:10045000E31052FEB70EF000938E0E0F93013001A1
:10046000631ADF151302000037110F0F1301F1F0AB
:10047000B700FF009380F00F13000000130000008E
:1004800033FF20001302120093022000E31E52FCEF
:10049000B70E0F00938EFE0093014001631CDF1125
:1004A0001302000037110F0F1301F1F013000000C9
:1004B000B70001FF938000F033FF20001302120009
:1004C00093022000E31052FEB71E000F938E0EF031
:1004D000930150016310DF0F1302000037F1F0F0B9
:1004E0001301010F13000000B710F00F938000FFFD
:1004F0001300000033FF20001302120093022000BB
:10050000E31E52FCB70EF000938E0E0F93016001B4
:100510006312DF0B1302000037110F0F1301F1F00C
:100520001300000013000000B700FF009380F00FDD
:1005300033FF20001302120093022000E31E52FC3E
:10054000B70E0F00938EFE00930170016314DF0756
:10055000B70001FF938000F033711000930E00008C
:10056000930180016318D105B700FF009380F00F5D
:1005700033F10000930E000093019001631CD1033E
:10058000B3700000930E00009301A0016394D003A8
:10059000B71011119380101137212222130121224B
:1005A00033F02000930E00009301B0016314D001DA
:1005B000631C30000F00F00F638001009391110065
:1005C00093E11100730000000F00F00F9301100081
:1005D00073000000731000C0000000000000000065
:1005E000000000000000000000000000000000000B
:1005F00000000000000000000000000000000000FB
:0406000000000000F6
:1010000000000000000000000000000000000000E0
:1010100000000000000000000000000000000000D0
:1010200000000000000000000000000000000000C0
:1010300000000000000000000000000000000000B0
:081040000000000000000000A8
:040000058000000077
:00000001FF
