:0200000480007A
:100000006F00C004732F2034930F8000630AFF0336
:10001000930F90006306FF03930FB0006302FF038A
:10002000170F0080130F0FFE63040F0067000F000F
:10003000732F203463540F006F00400093E19153FD
:10004000171F000023203FFC6FF09FFF732540F136
:1000500063100500970200009382020173905230F2
:1000600073500018970200009382C20173905230BF
:100070009302F0FF7390023B9302F0017390023AF7
:1000800097020000938282017390523073502030A7
:1000900073503030735040309301000097020000DD
:1000A000938282F673905230130510001315F501F8
:1000B000634805000F00F00F93011000730000006B
:1000C00097020080938202F4638E020073905210B4
:1000D000B7B20000938292107390223073232030C5
:1000E000E39E62F473500030970200009382420155
:1000F00073901234732540F1730020309300000098
:1001000013DF0040930E0000930120006314DF2BE7
:10011000B700008013DF1040B70E00C0930130001D
:10012000631ADF29B700008013DF7040B70E00FFAD
:10013000930140006310DF29B700008013DFE04027
:10014000B70EFEFF930150006316DF27B700008053
:100150009380100013DFF041930EF0FF93016000D5
:10016000631ADF25B70000809380F0FF13DF0040A3
:10017000B70E0080938EFEFF93017000631CDF2397
:10018000B70000809380F0FF13DF1040B70E0040EF
:10019000938EFEFF93018000631EDF21B700008075
:1001A0009380F0FF13DF7040B70E0001938EFEFFC7
:1001B000930190006310DF21B70000809380F0FF6F
:1001C00013DFE040B70E0200938EFEFF9301A00004
:1001D0006312DF1FB70000809380F0FF13DFF04150
:1001E000930E00009301B0006316DF1DB78081817C
:1001F0009380101813DF0040B78E8181938E1E18F4
:100200009301C0006318DF1BB780818193801018B1
:1002100013DF1040B7CEC0C0938E0E0C9301D000F8
:10022000631ADF19B78081819380101813DF704043
:10023000B70E03FF938E3E309301E000631CDF177F
:10024000B78081819380101813DFE040B70EFEFF66
:10025000938E6E609301F000631EDF15B78081817D
:100260009380101813DFF041930EF0FF930100010B
:100270006312DF15B700008093D07040B70E00FF07
:10028000930110016398D01313020000B70000809F
:1002900013DF704013030F001302120093022000BB
:1002A000E31652FEB70E00FF930120016314D31131
:1002B00013020000B700008013DFE04013000000CD
:1002C00013030F001302120093022000E31452FEE6
:1002D000B70EFEFF93013001631ED30D1302000021
:1002E000B70000809380100013DFF041130000007E
:1002F0001300000013030F001302120093022000EA
:10030000E31052FE930EF0FF930140016314D30BF0
:1003100013020000B700008013DF704013021200C8
:1003200093022000E31852FEB70E00FF9301500124
:100330006312DF0913020000B70000801300000001
:1003400013DFE0401302120093022000E31652FE76
:10035000B70EFEFF93016001631EDF05130200006C
:10036000B70000809380100013000000130000000D
:1003700013DFF0411302120093022000E31252FE39
:10038000930EF0FF930170016316DF03935040401A
:10039000930E000093018001639ED0019300100230
:1003A00013D0A040930E0000930190016314D0017C
:1003B000631C30000F00F00F638001009391110067
:1003C00093E11100730000000F00F00F9301100083
:1003D00073000000731000C0000000000000000067
:1003E000000000000000000000000000000000000D
:1003F00000000000000000000000000000000000FD
:0404000000000000F8
:1010000000000000000000000000000000000000E0
:1010100000000000000000000000000000000000D0
:1010200000000000000000000000000000000000C0
:1010300000000000000000000000000000000000B0
:081040000000000000000000A8
:040000058000000077
:00000001FF
