:0200000480007A
:100000006F00C004732F2034930F8000630AFF0336
:10001000930F90006306FF03930FB0006302FF038A
:10002000170F0080130F0FFE63040F0067000F000F
:10003000732F203463540F006F00400093E19153FD
:10004000171F000023203FFC6FF09FFF732540F136
:1000500063100500970200009382020173905230F2
:1000600073500018970200009382C20173905230BF
:100070009302F0FF7390023B9302F0017390023AF7
:1000800097020000938282017390523073502030A7
:1000900073503030735040309301000097020000DD
:1000A000938282F673905230130510001315F501F8
:1000B000634805000F00F00F93011000730000006B
:1000C00097020080938202F4638E020073905210B4
:1000D000B7B20000938292107390223073232030C5
:1000E000E39E62F473500030970200009382420155
:1000F00073901234732540F1730020309720000074
:10010000938040F003DF0000930EF00F9301200076
:100110006316DF27972000009380C0EE03DF2000E6
:10012000B70E0100938E0EF0930130006318DF25A7
:1001300097200000938000ED03DF4000B71E000011
:10014000938E0EFF93014000631ADF239720000077
:10015000938040EB03DF6000B7FE0000938EFE004B
:1001600093015000631CDF21972000009380E0E999
:1001700003DFA0FF930EF00F930160006310DF21F7
:1001800097200000938060E803DFC0FFB70E0100F6
:10019000938E0EF0930170006312DF1F9720000012
:1001A0009380A0E603DFE0FFB71E0000938E0EFFF2
:1001B000930180006314DF1D972000009380E0E42A
:1001C00003DF0000B7FE0000938EFE009301900055
:1001D0006316DF1B972000009380C0E2938000FE2F
:1001E00083D20002930EF00F9301A0006398D219FE
:1001F00097200000938000E19380B0FF83D27000CD
:10020000B70E0100938E0EF09301B0006398D217E1
:100210009301C00013020000972000009380A0DE2D
:1002200003DF200013030F00B71E0000938E0EFFA4
:100230006316D3151302120093022000E31E52FC32
:100240009301D00013020000972000009380C0DBD0
:1002500003DF20001300000013030F00B7FE0000AF
:10026000938EFE00631CD311130212009302200030
:10027000E31C52FC9301E0001302000097200000F1
:10028000938040D803DF200013000000130000001B
:1002900013030F00B70E0100938E0EF06310D30FFF
:1002A0001302120093022000E31A52FC9301F000A3
:1002B00013020000972000009380E0D403DF2000A9
:1002C000B71E0000938E0EFF631ADF0B130212009D
:1002D00093022000E31052FE93010001130200007C
:1002E00097200000938040D21300000003DF20001D
:1002F000B7FE0000938EFE006312DF0913021200A6
:1003000093022000E31E52FC93011001130200002F
:1003100097200000938000CF13000000130000001E
:1003200003DF2000B70E0100938E0EF06318DF0587
:100330001302120093022000E31C52FC97220000DB
:10034000938242CC03D1020013012000930E2000BF
:10035000930120016314D10397220000938282CA83
:1003600003D102001300000013012000930E2000AF
:10037000930130016314D101631C30000F00F00FB2
:10038000638001009391110093E11100730000005C
:100390000F00F00F9301100073000000731000C0F5
:1003A000000000000000000000000000000000004D
:1003B000000000000000000000000000000000003D
:0403C0000000000039
:1010000000000000000000000000000000000000E0
:1010100000000000000000000000000000000000D0
:1010200000000000000000000000000000000000C0
:1010300000000000000000000000000000000000B0
:081040000000000000000000A8
:10200000FF0000FFF00F0FF00000000000000000D4
:040000058000000077
:00000001FF
