:0200000480007A
:100000006F00C004732F2034930F8000630AFF0336
:10001000930F90006306FF03930FB0006302FF038A
:10002000170F0080130F0FFE63040F0067000F000F
:10003000732F203463540F006F00400093E19153FD
:10004000171F000023203FFC6FF09FFF732540F136
:1000500063100500970200009382020173905230F2
:1000600073500018970200009382C20173905230BF
:100070009302F0FF7390023B9302F0017390023AF7
:1000800097020000938282017390523073502030A7
:1000900073503030735040309301000097020000DD
:1000A000938282F673905230130510001315F501F8
:1000B000634805000F00F00F93011000730000006B
:1000C00097020080938202F4638E020073905210B4
:1000D000B7B20000938292107390223073232030C5
:1000E000E39E62F473500030970200009382420155
:1000F00073901234732540F1730020309300100088
:1001000013010000339F2000930E10009301200084
:10011000631EDF539300100013011000339F200073
:10012000930E2000930130006312DF539300100000
:1001300013017000339F2000930E000893014000CC
:100140006316DF51930010001301E000339F20007D
:10015000B74E000093015000631ADF4F9300100068
:100160001301F001339F2000B70E0080930160005F
:10017000631EDF4D9300F0FF13010000339F20004A
:10018000930EF0FF930170006312DF4D9300F0FFB8
:1001900013011000339F2000930EE0FF93018000B5
:1001A0006316DF4B9300F0FF13017000339F2000B4
:1001B000930E00F893019000631ADF499300F0FF5B
:1001C0001301E000339F2000B7CEFFFF9301A00092
:1001D000631EDF479300F0FF1301F001339F2000FF
:1001E000B70E00809301B0006312DF47B7202121D2
:1001F0009380101213010000339F2000B72E21219D
:10020000938E1E129301C0006312DF45B720212197
:100210009380101213011000339F2000B74E42420A
:10022000938E2E249301D0006312DF43B720212147
:100230009380101213017000339F2000B79E90909E
:10024000938E0E089301E0006312DF41B720212155
:10025000938010121301E000339F2000B74E4848EE
:100260009301F0006314DF3FB72021219380101227
:100270001301F001339F2000B70E008093010001AD
:100280006316DF3DB720212193801012130100FC7B
:10029000339F2000B72E2121938E1E12930110014F
:1002A0006316DF3BB720212193801012130110FC4D
:1002B000339F2000B74E4242938E2E24930120019B
:1002C0006316DF39B720212193801012130170FCCF
:1002D000339F2000B79E9090938E0E0893013001BB
:1002E0006316DF37B7202121938010121301E0FC41
:1002F000339F2000B74E4848930140016318DF3513
:100300009300100013017000B3902000930E0008BA
:1003100093016001639CD033930010001301E0004F
:1003200033912000B74E0000930170016310D13368
:1003300093003000B3901000930E80019301800170
:100340006396D03113020000930010001301700077
:10035000339F200013030F001302120093022000AA
:10036000E31452FE930E0008930190016310D32F03
:1003700013020000930010001301E000339F2000DF
:100380001300000013030F00130212009302200059
:10039000E31252FEB74E00009301A0016318D32B65
:1003A00013020000930010001301F001339F20009E
:1003B000130000001300000013030F0013021200CB
:1003C00093022000E31052FEB70E00809301B001AB
:1003D000631ED32713020000930010001301700066
:1003E000339F20001302120093022000E31652FEF6
:1003F000930E00089301C001631ADF251302000069
:10040000930010001301E00013000000339F200050
:100410001302120093022000E31452FEB74E0000B4
:100420009301D0016314DF23130200009300100036
:100430001301F0011300000013000000339F20009F
:100440001302120093022000E31252FEB70E008046
:100450009301E001631CDF1F1302000093001000F2
:100460001300000013017000339F200013021200DC
:1004700093022000E31452FE930E00089301F00152
:100480006316DF1D1302000093001000130000002C
:100490001301E00013000000339F2000130212003C
:1004A00093022000E31252FEB74E000093010002B7
:1004B000631EDF19130200009300100013000000F8
:1004C000130000001301F001339F200013021200FB
:1004D00093022000E31252FEB70E00809301100237
:1004E0006316DF1713020000130170009300100061
:1004F000339F20001302120093022000E31652FEE5
:10050000930E0008930120026312DF15130200000E
:100510001301E0009300100013000000339F20003F
:100520001302120093022000E31452FEB74E0000A3
:1005300093013002631CDF11130200001301F0016C
:10054000930010001300000013000000339F2000F0
:100550001302120093022000E31252FEB70E008035
:10056000930140026314DF0F1302000013017000B7
:100570001300000093001000339F200013021200AC
:1005800093022000E31452FE930E000893015002E0
:10059000631EDF0B130200001301E00013000000D4
:1005A0009300100013000000339F2000130212007C
:1005B00093022000E31252FEB74E00009301600246
:1005C0006316DF09130200001301F001130000009D
:1005D0001300000093001000339F2000130212004C
:1005E00093022000E31252FEB70E008093017002C6
:1005F000631EDF059300F00033111000930E00001E
:10060000930180026314D10593000002339100002E
:10061000930E000293019002631AD103B3100000FD
:10062000930E00009301A0026392D0039300004058
:10063000371100001301018033902000930E000059
:100640009301B0026314D001631C30000F00F00F5F
:10065000638001009391110093E111007300000089
:100660000F00F00F9301100073000000731000C022
:10067000000000000000000000000000000000007A
:040680000000000076
:1010000000000000000000000000000000000000E0
:1010100000000000000000000000000000000000D0
:1010200000000000000000000000000000000000C0
:1010300000000000000000000000000000000000B0
:081040000000000000000000A8
:040000058000000077
:00000001FF
