:0200000480007A
:100000006F00C004732F2034930F8000630AFF0336
:10001000930F90006306FF03930FB0006302FF038A
:10002000170F0080130F0FFE63040F0067000F000F
:10003000732F203463540F006F00400093E19153FD
:10004000171F000023203FFC6FF09FFF732540F136
:1000500063100500970200009382020173905230F2
:1000600073500018970200009382C20173905230BF
:100070009302F0FF7390023B9302F0017390023AF7
:1000800097020000938282017390523073502030A7
:1000900073503030735040309301000097020000DD
:1000A000938282F673905230130510001315F501F8
:1000B000634805000F00F00F93011000730000006B
:1000C00097020080938202F4638E020073905210B4
:1000D000B7B20000938292107390223073232030C5
:1000E000E39E62F473500030970200009382420155
:1000F00073901234732540F173002030B70001FF74
:10010000938000F037110F0F1301F1F033EF20004F
:10011000B70E10FF938EFEF0930120006312DF4BA9
:10012000B710F00F938000FF37F1F0F01301010FCB
:1001300033EF2000B70EF1FF938E0EFF93013000D6
:100140006310DF49B700FF009380F00F37110F0FE6
:100150001301F1F033EF2000B71EFF0F938EFEFF67
:1001600093014000631EDF45B7F00FF09380F0006D
:1001700037F1F0F01301010F33EF2000B7FEFFF06D
:10018000938EFE0F93015000631CDF43B70001FF05
:10019000938000F037110F0F1301F1F0B3E020004E
:1001A000B70E10FF938EFEF093016000639AD0416A
:1001B000B70001FF938000F037110F0F1301F1F02A
:1001C00033E12000B70E10FF938EFEF09301700014
:1001D0006318D13FB70001FF938000F0B3E0100037
:1001E000B70E01FF938E0EF093018000639AD03D0D
:1001F00013020000B70001FF938000F037110F0FCA
:100200001301F1F033EF200013030F00130212006B
:1002100093022000E31052FEB70E10FF938EFEF003
:1002200093019000631ED33913020000B710F00F42
:10023000938000FF37F1F0F01301010F33EF20003E
:100240001300000013030F0013021200930220009A
:10025000E31E52FCB70EF1FF938E0EFF9301A00038
:100260006310D33713020000B700FF009380F00F34
:1002700037110F0F1301F1F033EF200013000000CE
:100280001300000013030F0013021200930220005A
:10029000E31C52FCB71EFF0F938EFEFF9301B000CC
:1002A0006310D33313020000B70001FF938000F006
:1002B00037110F0F1301F1F033EF2000130212007A
:1002C00093022000E31252FEB70E10FF938EFEF051
:1002D0009301C0006316DF2F13020000B710F00F68
:1002E000938000FF37F1F0F01301010F13000000BD
:1002F00033EF20001302120093022000E31052FE9D
:10030000B70EF1FF938E0EFF9301D000631ADF2B1F
:1003100013020000B700FF009380F00F37110F0F9A
:100320001301F1F0130000001300000033EF200070
:100330001302120093022000E31E52FCB71EFF0FAF
:10034000938EFEFF9301E000631CDF271302000081
:10035000B70001FF938000F01300000037110F0F6A
:100360001301F1F033EF200013021200930220007A
:10037000E31052FEB70E10FF938EFEF09301F000D3
:100380006310DF2513020000B710F00F938000FF09
:100390001300000037F1F0F01301010F130000000B
:1003A00033EF20001302120093022000E31E52FCE0
:1003B000B70EF1FF938E0EFF930100016312DF2150
:1003C00013020000B700FF009380F00F130000003D
:1003D0001300000037110F0F1301F1F033EF20006D
:1003E0001302120093022000E31E52FCB71EFF0FFF
:1003F000938EFEFF930110016314DF1D13020000B2
:1004000037110F0F1301F1F0B70001FF938000F0D7
:1004100033EF20001302120093022000E31252FE79
:10042000B70E10FF938EFEF093012001631ADF19BF
:100430001302000037F1F0F01301010FB710F00FB5
:10044000938000FF1300000033EF2000130212001E
:1004500093022000E31052FEB70EF1FF938E0EFFC1
:1004600093013001631EDF151302000037110F0FD7
:100470001301F1F0B700FF009380F00F13000000AC
:100480001300000033EF200013021200930220003B
:10049000E31E52FCB71EFF0F938EFEFF9301400137
:1004A0006310DF131302000037110F0F1301F1F077
:1004B00013000000B70001FF938000F033EF20002D
:1004C0001302120093022000E31052FEB70E10FF39
:1004D000938EFEF0930150016314DF0F13020000AE
:1004E00037F1F0F01301010F13000000B710F00F07
:1004F000938000FF1300000033EF2000130212006E
:1005000093022000E31E52FCB70EF1FF938E0EFF04
:10051000930160016316DF0B1302000037110F0F08
:100520001301F1F01300000013000000B700FF00FA
:100530009380F00F33EF200013021200930220008B
:10054000E31E52FCB71EFF0F938EFEFF9301700156
:100550006318DF07B70001FF938000F033611000DC
:10056000B70E01FF938E0EF093018001631AD1053F
:10057000B700FF009380F00F33E10000B70EFF00DB
:10058000938EFE0F93019001631CD103B3600000B2
:10059000930E00009301A0016394D003B7101111D2
:1005A00093801011372122221301212233E02000F1
:1005B000930E00009301B0016314D001631C30005E
:1005C0000F00F00F638001009391110093E111007F
:1005D000730000000F00F00F930110007300000083
:1005E000731000C0000000000000000000000000C8
:1005F00000000000000000000000000000000000FB
:0406000000000000F6
:1010000000000000000000000000000000000000E0
:1010100000000000000000000000000000000000D0
:1010200000000000000000000000000000000000C0
:1010300000000000000000000000000000000000B0
:081040000000000000000000A8
:040000058000000077
:00000001FF
