:0200000480007A
:100000006F00C004732F2034930F8000630AFF0336
:10001000930F90006306FF03930FB0006302FF038A
:10002000170F0000130F0F2E63040F0067000F005F
:10003000732F203463540F006F00400093E19153FD
:10004000171F000023203FFC6FF09FFF732540F136
:1000500063100500970200009382020173905230F2
:1000600073500018970200009382C20173905230BF
:100070009302F0FF7390023B9302F0017390023AF7
:1000800097020000938282017390523073502030A7
:1000900073503030735040309301000097020000DD
:1000A000938282F673905230130510001315F501F8
:1000B000634805000F00F00F93011000730000006B
:1000C00097020080938202F4638E020073905210B4
:1000D000B7B20000938292107390223073232030C5
:1000E000E39E62F47350003037250000130505804D
:1000F00073200530970200009382420173901234FE
:10010000732540F1730020309301200000000000AF
:100110006F00400FB72200009382028073B002305C
:10012000371300001303038073200330F3230030E0
:10013000B3F353006312730E735041347350413064
:10014000970200009382121C73945230F3225030B5
:1001500093F2120063860200736004306F000000A7
:100160007310543073503130970200009382820232
:1001700073901234B72200009382028073B0023071
:100180003713000013030380732003307300203003
:1001900073005010000000006F00C0067300501084
:1001A0006F00400673000012F322001800000000E8
:1001B0006F004005730000126F00C004F3220018A6
:1001C0006F004004970200009382020273901214A1
:1001D0009302001073A002109302000273B0021089
:1001E00073002010000000006F00C00197020000A3
:1001F0009382020173901214730020106F0080002C
:10020000631C30000F00F00F638001009391110018
:1002100093E11100730000000F00F00F9301100034
:100220007300000013000000130000001300000022
:100230001300000013000000130000001300000072
:100240001300000013000000130000001300000062
:100250001300000013000000130000001300000052
:100260001300000013000000130000001300000042
:100270001300000013000000130000001300000032
:100280001300000013000000130000001300000022
:100290001300000013000000130000001300000012
:1002A0001300000013000000130000001300000002
:1002B00013000000130000001300000013000000F2
:1002C00013000000130000001300000013000000E2
:1002D00013000000130000001300000013000000D2
:1002E00013000000130000001300000013000000C2
:1002F00013000000130000001300000013000000B2
:100300006F0000046FF0DFE56FF0DFEF6FF09FEF3D
:100310006FF05FEF6FF01FEF6FF0DFEE6FF09FEEAB
:100320006FF05FEE6FF01FEE6FF0DFED6FF09FED9F
:100330006FF05FED6FF01FED6FF0DFEC6FF09FEC93
:1003400013032000F3222034E39E62EAF3221034E8
:10035000170300001303C3DB638E6204170300005E
:10036000130383E3638E620417030000130343E364
:100370006382620417030000130383E3638862044B
:1003800017030000130343E36386620217030000B0
:10039000130303E363806202170300001303C3E443
:1003A000638C620217030000130343E5638C62024F
:1003B0006FF05FE5938282007390123473002030F7
:1003C00037032000732003306FF0DFFE3703100087
:1003D000732003306FF01FFE37034000732003309B
:1003E0006FF05FFD6FF01FFD731000C00000000094
:1003F00000000000000000000000000000000000FD
:1004000000000000000000000000000000000000EC
:1004100000000000000000000000000000000000DC
:1004200000000000000000000000000000000000CC
:1004300000000000000000000000000000000000BC
:1004400000000000000000000000000000000000AC
:10045000000000000000000000000000000000009C
:10046000000000000000000000000000000000008C
:10047000000000000000000000000000000000007C
:10048000000000000000000000000000000000006C
:10049000000000000000000000000000000000005C
:0404A0000000000058
:1010000000000000000000000000000000000000E0
:1010100000000000000000000000000000000000D0
:1010200000000000000000000000000000000000C0
:1010300000000000000000000000000000000000B0
:081040000000000000000000A8
:040000058000000077
:00000001FF
