:0200000480007A
:100000006F00C004732F2034930F8000630AFF0336
:10001000930F90006306FF03930FB0006302FF038A
:10002000170F0080130F0FFE63040F0067000F000F
:10003000732F203463540F006F00400093E19153FD
:10004000171F000023203FFC6FF09FFF732540F136
:1000500063100500970200009382020173905230F2
:1000600073500018970200009382C20173905230BF
:100070009302F0FF7390023B9302F0017390023AF7
:1000800097020000938282017390523073502030A7
:1000900073503030735040309301000097020000DD
:1000A000938282F673905230130510001315F501F8
:1000B000634805000F00F00F93011000730000006B
:1000C00097020080938202F4638E020073905210B4
:1000D000B7B20000938292107390223073232030C5
:1000E000E39E62F473500030970200009382420155
:1000F00073901234732540F1730020309306F0069C
:1001000017250000031505F0972500008395A5EF3E
:100110001300000013000000130000001300000093
:100120001300000013000000130000001300000083
:100130001300000013000000130000001300000073
:1001400097020000239AA200970200002397B200B2
:100150000F1000009386E60D13000000930EC01BE5
:1001600093012000639AD607130740061307F7FF91
:10017000E31E07FE970200002396A20497020000E8
:100180002393B2040F1000001300000013000000BE
:100190001300000013000000130000001300000013
:1001A0001300000013000000130000001300000003
:1001B00013000000130000001300000013000000F3
:1001C0009386B62213000000930E90309301300006
:1001D0006394D601631C30000F00F00F63800100B0
:1001E0009391110093E11100730000000F00F00FD4
:1001F0009301100073000000731000C000000000A5
:1002000000000000000000000000000000000000EE
:1002100000000000000000000000000000000000DE
:1002200000000000000000000000000000000000CE
:0402300000000000CA
:1010000000000000000000000000000000000000E0
:1010100000000000000000000000000000000000D0
:1010200000000000000000000000000000000000C0
:1010300000000000000000000000000000000000B0
:081040000000000000000000A8
:102000009386D614000000000000000000000000CD
:040000058000000077
:00000001FF
