:0200000480007A
:100000006F00C004732F2034930F8000630AFF0336
:10001000930F90006306FF03930FB0006302FF038A
:10002000170F0080130F0FFE63040F0067000F000F
:10003000732F203463540F006F00400093E19153FD
:10004000171F000023203FFC6FF09FFF732540F136
:1000500063100500970200009382020173905230F2
:1000600073500018970200009382C20173905230BF
:100070009302F0FF7390023B9302F0017390023AF7
:1000800097020000938282017390523073502030A7
:1000900073503030735040309301000097020000DD
:1000A000938282F673905230130510001315F501F8
:1000B000634805000F00F00F93011000730000006B
:1000C00097020080938202F4638E020073905210B4
:1000D000B7B20000938292107390223073232030C5
:1000E000E39E62F473500030970200009382420155
:1000F00073901234732540F1730020309300000098
:1001000013010000338F2000930E000093012000A4
:100110006316DF4D9300100013011000338F200091
:10012000930E200093013000631ADF4B93003000E0
:1001300013017000338F2000930EA0009301400044
:10014000631EDF49930000003781FFFF338F2000DB
:10015000B78EFFFF930150006312DF49B7000080A4
:1001600013010000338F2000B70E00809301600060
:100170006316DF47B70000803781FFFF338F200011
:10018000B78EFF7F93017000631ADF459300000074
:10019000378100001301F1FF338F2000B78E00007C
:1001A000938EFEFF93018000631ADF43B700008047
:1001B0009380F0FF13010000338F2000B70E008002
:1001C000938EFEFF93019000631ADF41B700008019
:1001D0009380F0FF378100001301F1FF338F20007F
:1001E000B78E0080938EEEFF9301A0006318DF3F6F
:1001F000B7000080378100001301F1FF338F20002A
:10020000B78E0080938EFEFF9301B0006318DF3D30
:10021000B70000809380F0FF3781FFFF338F20000D
:10022000B78EFF7F938EFEFF9301C0006318DF3B04
:10023000930000001301F0FF338F2000930EF0FFB6
:100240009301D000631CDF399300F0FF130110000D
:10025000338F2000930E00009301E0006310DF391C
:100260009300F0FF1301F0FF338F2000930EE0FFA7
:100270009301F0006314DF37930010003701008012
:100280001301F1FF338F2000B70E008093010001AE
:100290006316DF359300D0001301B000B380200057
:1002A000930E800193011001639AD0339300E00014
:1002B0001301B00033812000930E900193012001BF
:1002C000631ED1319300D000B3801000930EA001C3
:1002D000930130016394D031130200009300D000E9
:1002E0001301B000338F200013030F00130212001C
:1002F00093022000E31452FE930E8001930140010B
:10030000631ED32D130200009300E0001301B00020
:10031000338F20001300000013030F00130212009C
:1003200093022000E31252FE930E900193015001BC
:100330006316D32B130200009300F0001301B000EA
:10034000338F2000130000001300000013030F0080
:100350001302120093022000E31052FE930EA0013C
:1003600093016001631CD327130200009300D000A7
:100370001301B000338F20001302120093022000FB
:10038000E31652FE930E8001930170016318DF257E
:10039000130200009300E0001301B00013000000FE
:1003A000338F20001302120093022000E31452FE48
:1003B000930E9001930180016312DF23130200006A
:1003C0009300F0001301B0001300000013000000C0
:1003D000338F20001302120093022000E31252FE1A
:1003E000930EA00193019001631ADF1F1302000016
:1003F0009300D000130000001301B000338F2000E1
:100400001302120093022000E31452FE930E8001A7
:100410009301A0016314DF1D130200009300E000AC
:10042000130000001301B00013000000338F200000
:100430001302120093022000E31252FE930E900169
:100440009301B001631CDF19130200009300F00058
:1004500013000000130000001301B000338F2000D0
:100460001302120093022000E31252FE930EA00129
:100470009301C0016314DF17130200001301B000E1
:100480009300D000338F200013021200930220004B
:10049000E31652FE930E80019301D0016310DF1525
:1004A000130200001301B0009300E00013000000ED
:1004B000338F20001302120093022000E31452FE37
:1004C000930E90019301E001631ADF111302000003
:1004D0001301B0009300F0001300000013000000AF
:1004E000338F20001302120093022000E31252FE09
:1004F000930EA0019301F0016312DF0F13020000BD
:100500001301B000130000009300D000338F2000CF
:100510001302120093022000E31452FE930E800196
:1005200093010002631CDF0B130200001301B000F3
:10053000130000009300E00013000000338F200040
:100540001302120093022000E31252FE930E900158
:10055000930110026314DF09130200001301B000BD
:1005600013000000130000009300F000338F200000
:100570001302120093022000E31252FE930EA00118
:1005800093012002631CDF059300F000330110008B
:10059000930EF000930130026312D1059300000224
:1005A00033810000930E0002930140026318D103CF
:1005B000B3000000930E0000930150026390D0033B
:1005C000930000011301E00133802000930E00002E
:1005D000930160026314D001631C30000F00F00F20
:1005E000638001009391110093E1110073000000FA
:1005F0000F00F00F9301100073000000731000C093
:0406000000000000F6
:1010000000000000000000000000000000000000E0
:1010100000000000000000000000000000000000D0
:1010200000000000000000000000000000000000C0
:1010300000000000000000000000000000000000B0
:081040000000000000000000A8
:040000058000000077
:00000001FF
