:0200000480007A
:100000006F00C004732F2034930F8000630AFF0336
:10001000930F90006306FF03930FB0006302FF038A
:10002000170F0080130F0FFE63040F0067000F000F
:10003000732F203463540F006F00400093E19153FD
:10004000171F000023203FFC6FF09FFF732540F136
:1000500063100500970200009382020173905230F2
:1000600073500018970200009382C20173905230BF
:100070009302F0FF7390023B9302F0017390023AF7
:1000800097020000938282017390523073502030A7
:1000900073503030735040309301000097020000DD
:1000A000938282F673905230130510001315F501F8
:1000B000634805000F00F00F93011000730000006B
:1000C00097020080938202F4638E020073905210B4
:1000D000B7B20000938292107390223073232030C5
:1000E000E39E62F473500030970200009382420155
:1000F00073901234732540F173002030B70001FF74
:10010000938000F037110F0F1301F1F033CF20006F
:10011000B7FE0FF0938EFE00930120006310DF4BBB
:10012000B710F00F938000FF37F1F0F01301010FCB
:1001300033CF2000B70E01FF938E0EF093013000F5
:10014000631EDF47B700FF009380F00F37110F0FDA
:100150001301F1F033CF2000B71EF00F938E0EFF86
:1001600093014000631CDF45B7F00FF09380F0006F
:1001700037F1F0F01301010F33CF2000B70EFF006D
:10018000938EFE0F93015000631ADF43B70001FF07
:10019000938000F037110F0F1301F1F0B3C020006E
:1001A000B7FE0FF0938EFE00930160006398D0417C
:1001B000B70001FF938000F037110F0F1301F1F02A
:1001C00033C12000B7FE0FF0938EFE009301700044
:1001D0006316D13FB70001FF938000F0B3C0100059
:1001E000930E000093018000639AD03D130200003B
:1001F000B70001FF938000F037110F0F1301F1F0EA
:1002000033CF200013030F001302120093022000CB
:10021000E31052FEB7FE0FF0938EFE0093019000A4
:10022000631ED33913020000B710F00F938000FF54
:1002300037F1F0F01301010F33CF2000130000005D
:1002400013030F001302120093022000E31E52FC5E
:10025000B70E01FF938E0EF09301A0006310D33709
:1002600013020000B700FF009380F00F37110F0F4B
:100270001301F1F033CF2000130000001300000041
:1002800013030F001302120093022000E31C52FC20
:10029000B71EF00F938E0EFF9301B0006310D3339F
:1002A00013020000B70001FF938000F037110F0F19
:1002B0001301F1F033CF200013021200930220004B
:1002C000E31252FEB7FE0FF0938EFE009301C000C2
:1002D0006316DF2F13020000B710F00F938000FFAA
:1002E00037F1F0F01301010F1300000033CF2000AD
:1002F0001302120093022000E31052FEB70E01FF1A
:10030000938E0EF09301D000631ADF2B13020000CE
:10031000B700FF009380F00F37110F0F1301F1F0BA
:10032000130000001300000033CF2000130212005E
:1003300093022000E31E52FCB71EF00F938E0EFFB7
:100340009301E000631CDF2713020000B70001FFE8
:10035000938000F01300000037110F0F1301F1F02C
:1003600033CF20001302120093022000E31052FE4C
:10037000B7FE0FF0938EFE009301F0006310DF25AF
:1003800013020000B710F00F938000FF130000006D
:1003900037F1F0F01301010F1300000033CF2000FC
:1003A0001302120093022000E31E52FCB70E01FF5D
:1003B000938E0EF0930100016312DF2113020000FF
:1003C000B700FF009380F00F13000000130000003F
:1003D00037110F0F1301F1F033CF20001302120079
:1003E00093022000E31E52FCB71EF00F938E0EFF07
:1003F000930110016314DF1D1302000037110F0F6A
:100400001301F1F0B70001FF938000F033CF20001B
:100410001302120093022000E31252FEB7FE0FF007
:10042000938EFE0093012001631ADF19130200006E
:1004300037F1F0F01301010FB710F00F938000FFB8
:100440001300000033CF200013021200930220009B
:10045000E31052FEB70E01FF938E0EF093013001B0
:10046000631EDF151302000037110F0F1301F1F0A7
:10047000B700FF009380F00F13000000130000008E
:1004800033CF20001302120093022000E31E52FC1F
:10049000B71EF00F938E0EFF930140016310DF1320
:1004A0001302000037110F0F1301F1F013000000C9
:1004B000B70001FF938000F033CF20001302120039
:1004C00093022000E31052FEB7FE0FF0938EFE0061
:1004D000930150016314DF0F1302000037F1F0F0B5
:1004E0001301010F13000000B710F00F938000FFFD
:1004F0001300000033CF20001302120093022000EB
:10050000E31E52FCB70E01FF938E0EF093016001C3
:100510006316DF0B1302000037110F0F1301F1F008
:100520001300000013000000B700FF009380F00FDD
:1005300033CF20001302120093022000E31E52FC6E
:10054000B71EF00F938E0EFF930170016318DF0743
:10055000B70001FF938000F033411000B70E01FF98
:10056000938E0EF093018001631AD105B700FF004E
:100570009380F00F33C10000B70EFF00938EFE0F83
:1005800093019001631CD103B3400000930E00005F
:100590009301A0016394D003B7101111938010113F
:1005A000372122221301212233C02000930E0000A4
:1005B0009301B0016314D001631C30000F00F00FF1
:1005C000638001009391110093E11100730000001A
:1005D0000F00F00F9301100073000000731000C0B3
:1005E000000000000000000000000000000000000B
:1005F00000000000000000000000000000000000FB
:0406000000000000F6
:1010000000000000000000000000000000000000E0
:1010100000000000000000000000000000000000D0
:1010200000000000000000000000000000000000C0
:1010300000000000000000000000000000000000B0
:081040000000000000000000A8
:040000058000000077
:00000001FF
