:0200000480007A
:100000006F00C004732F2034930F8000630AFF0336
:10001000930F90006306FF03930FB0006302FF038A
:10002000170F0080130F0FFE63040F0067000F000F
:10003000732F203463540F006F00400093E19153FD
:10004000171F000023203FFC6FF09FFF732540F136
:1000500063100500970200009382020173905230F2
:1000600073500018970200009382C20173905230BF
:100070009302F0FF7390023B9302F0017390023AF7
:1000800097020000938282017390523073502030A7
:1000900073503030735040309301000097020000DD
:1000A000938282F673905230130510001315F501F8
:1000B000634805000F00F00F93011000730000006B
:1000C00097020080938202F4638E020073905210B4
:1000D000B7B20000938292107390223073232030C5
:1000E000E39E62F473500030970200009382420155
:1000F00073901234732540F1730020309300000098
:1001000013010000338F2040930E00009301200064
:100110006316DF4B9300100013011000338F204053
:10012000930E000093013000631ADF499300300002
:1001300013017000338F2040930EC0FF93014000E5
:10014000631EDF47930000003781FFFF338F20409D
:10015000B78E0000930150006312DF47B7000080A4
:1001600013010000338F2040B70E00809301600020
:100170006316DF45B70000803781FFFF338F2040D3
:10018000B78E008093017000631ADF439300000074
:10019000378100001301F1FF338F2040B78EFFFF3E
:1001A000938E1E0093018000631ADF41B700008028
:1001B0009380F0FF13010000338F2040B70E0080C2
:1001C000938EFEFF93019000631ADF3FB70000801B
:1001D0009380F0FF378100001301F1FF338F20403F
:1001E000B78EFF7F9301A000631ADF3DB700008048
:1001F000378100001301F1FF338F2040B78EFF7F5E
:10020000938E1E009301B000631ADF3BB70000809D
:100210009380F0FF3781FFFF338F2040B78E00803F
:10022000938EFEFF9301C000631ADF399300000034
:100230001301F0FF338F2040930E10009301D00084
:10024000631EDF379300F0FF13011000338F20404F
:10025000930EE0FF9301E0006312DF379300F0FF9D
:100260001301F0FF338F2040930E00009301F00044
:100270006316DF359300D0001301B000B380204037
:10028000930E200093010001639AD0339300E000A5
:100290001301B00033812040930E30009301100110
:1002A000631ED1319300D000B3801040930E000044
:1002B000930120016394D031130200009300D00019
:1002C0001301B000338F204013030F0013021200FC
:1002D00093022000E31452FE930E2000930130019C
:1002E000631ED32D130200009300E0001301B00041
:1002F000338F20401300000013030F00130212007D
:1003000093022000E31252FE930E3000930140014D
:100310006316D32B130200009300F0001301B0000A
:10032000338F2040130000001300000013030F0060
:100330001302120093022000E31052FE930E4000BD
:1003400093015001631CD327130200009300D000D7
:100350001301B000338F20401302120093022000DB
:10036000E31652FE930E2000930160016318DF250F
:10037000130200009300E0001301B000130000001E
:10038000338F20401302120093022000E31452FE28
:10039000930E3000930170016312DF2313020000FB
:1003A0009300F0001301B0001300000013000000E0
:1003B000338F20401302120093022000E31252FEFA
:1003C000930E400093018001631ADF1F13020000A7
:1003D0009300D000130000001301B000338F2040C1
:1003E0001302120093022000E31452FE930E200029
:1003F000930190016314DF1D130200009300E000DD
:10040000130000001301B00013000000338F2040E0
:100410001302120093022000E31252FE930E3000EA
:100420009301A001631CDF19130200009300F00088
:1004300013000000130000001301B000338F2040B0
:100440001302120093022000E31252FE930E4000AA
:100450009301B0016314DF17130200001301B00011
:100460009300D000338F204013021200930220002B
:10047000E31652FE930E20009301C0016310DF15B6
:10048000130200001301B0009300E000130000000D
:10049000338F20401302120093022000E31452FE17
:1004A000930E30009301D001631ADF111302000094
:1004B0001301B0009300F0001300000013000000CF
:1004C000338F20401302120093022000E31252FEE9
:1004D000930E40009301E0016312DF0F130200004E
:1004E0001301B000130000009300D000338F2040B0
:1004F0001302120093022000E31452FE930E200018
:100500009301F001631CDF0B130200001301B00024
:10051000130000009300E00013000000338F204020
:100520001302120093022000E31252FE930E3000D9
:10053000930100026314DF09130200001301B000ED
:1005400013000000130000009300F000338F2040E0
:100550001302120093022000E31252FE930E400099
:1005600093011002631CDF05930010FF330110405C
:10057000930EF000930120026312D1059300000254
:1005800033810040930E0002930130026318D103BF
:10059000B3000040930E0000930140026390D0032B
:1005A000930000011301E00133802040930E00000E
:1005B000930150026314D001631C30000F00F00F50
:1005C000638001009391110093E11100730000001A
:1005D0000F00F00F9301100073000000731000C0B3
:1005E000000000000000000000000000000000000B
:1005F00000000000000000000000000000000000FB
:0406000000000000F6
:1010000000000000000000000000000000000000E0
:1010100000000000000000000000000000000000D0
:1010200000000000000000000000000000000000C0
:1010300000000000000000000000000000000000B0
:081040000000000000000000A8
:040000058000000077
:00000001FF
