:0200000480007A
:100000006F00C004732F2034930F8000630AFF0336
:10001000930F90006306FF03930FB0006302FF038A
:10002000170F0080130F0FFE63040F0067000F000F
:10003000732F203463540F006F00400093E19153FD
:10004000171F000023203FFC6FF09FFF732540F136
:1000500063100500970200009382020173905230F2
:1000600073500018970200009382C20173905230BF
:100070009302F0FF7390023B9302F0017390023AF7
:1000800097020000938282017390523073502030A7
:1000900073503030735040309301000097020000DD
:1000A000938282F673905230130510001315F501F8
:1000B000634805000F00F00F93011000730000006B
:1000C00097020080938202F4638E020073905210B4
:1000D000B7B20000938292107390223073232030C5
:1000E000E39E62F473500030372500007320053022
:1000F00073503000970200009382420173901234D3
:10010000732540F17300203073D0300037150000A4
:1001100013054523F3153500930E100093012000BD
:10012000639CD52773253000930E40039301300064
:100130006314D52773251000930E400193014000EE
:10014000631CD52573552100930E100093015000B8
:100150006314D52573253000930E4005930160008C
:10016000631CD52373751200930E40019301700038
:100170006314D52373253000930E0005930180008E
:10018000631CD521B755341293858567130600008B
:10019000D38005F0530106F053802020530500E082
:1001A000B75E3412938E8E679301A0006316D51F3D
:1001B000B7553412938585671306F0FFD38005F099
:1001C000530106F053802020530500E0B75E3492BF
:1001D000938E8E679301B0006310D51DB75534928E
:1001E0009385856713060000D38005F0530106F060
:1001F00053802020530500E0B75E3412938E8E6743
:100200009301C000631AD519B75534929385856759
:100210001306F0FFD38005F0530106F05380202031
:10022000530500E0B75E3492938E8E679301D00041
:100230006314D517B75534129385856713060000EC
:10024000D38005F0530106F053902020530500E0C1
:10025000B75E3492938E8E6793014001631ED5136F
:10026000B7553412938585671306F0FFD38005F0E8
:10027000530106F053902020530500E0B75E34127E
:10028000938E8E67930150016318D511B755349240
:100290009385856713060000D38005F0530106F0AF
:1002A00053902020530500E0B75E3492938E8E6702
:1002B000930160016312D50FB7553492938585671A
:1002C0001306F0FFD38005F0530106F05390202071
:1002D000530500E0B75E3412938E8E679301700170
:1002E000631CD50BB7553412938585671306000040
:1002F000D38005F0530106F053A02020530500E001
:10030000B75E3412938E8E679301E0016316D509B0
:10031000B7553412938585671306F0FFD38005F037
:10032000530106F053A02020530500E0B75E34923D
:10033000938E8E679301F0016310D507B755349201
:100340009385856713060000D38005F0530106F0FE
:1003500053A02020530500E0B75E3492938E8E6741
:1003600093010002631AD503B755349293858567CC
:100370001306F0FFD38005F0530106F053A02020B0
:10038000530500E0B75E3412938E8E67930110021E
:100390006314D501631C30000F00F00F638001006F
:1003A0009391110093E11100730000000F00F00F12
:1003B0009301100073000000731000C000000000E3
:0403C0000000000039
:1010000000000000000000000000000000000000E0
:1010100000000000000000000000000000000000D0
:1010200000000000000000000000000000000000C0
:1010300000000000000000000000000000000000B0
:081040000000000000000000A8
:040000058000000077
:00000001FF
