:0200000480007A
:100000006F00C004732F2034930F8000630AFF0336
:10001000930F90006306FF03930FB0006302FF038A
:10002000170F0080130F0FFE63040F0067000F000F
:10003000732F203463540F006F00400093E19153FD
:10004000171F000023203FFC6FF09FFF732540F136
:1000500063100500970200009382020173905230F2
:1000600073500018970200009382C20173905230BF
:100070009302F0FF7390023B9302F0017390023AF7
:1000800097020000938282017390523073502030A7
:1000900073503030735040309301000097020000DD
:1000A000938282F673905230130510001315F501F8
:1000B000634805000F00F00F93011000730000006B
:1000C00097020080938202F4638E020073905210B4
:1000D000B7B20000938292107390223073232030C5
:1000E000E39E62F473500030970200009382420155
:1000F00073901234732540F1730020309300400157
:100100001301600033EF2002930E200093012000C2
:100110006314DF0D9300C0FE1301600033EF200273
:10012000930EE0FF930130006318DF0B9300400152
:100130001301A0FF33EF2002930E20009301400033
:10014000631CDF099300C0FE1301A0FF33EF200200
:10015000930EE0FF930150006310DF09B7000080A9
:100160001301100033EF2002930E00009301600092
:100170006314DF07B70000801301F0FF33EF2002A4
:10018000930E0000930170006318DF05B700008034
:100190001301000033EF2002B70E008093018000AE
:1001A000631CDF03930010001301000033EF2002F3
:1001B000930E1000930190006310DF039300000082
:1001C0001301000033EF2002930E00009301A00002
:1001D0006314DF01631C30000F00F00F6380010027
:1001E0009391110093E11100730000000F00F00FD4
:1001F0009301100073000000731000C000000000A5
:0402000000000000FA
:1010000000000000000000000000000000000000E0
:1010100000000000000000000000000000000000D0
:1010200000000000000000000000000000000000C0
:1010300000000000000000000000000000000000B0
:081040000000000000000000A8
:040000058000000077
:00000001FF
